S00D0000696D6167652E7372656314
S3150000080000000420BD0C0000B7580100B1580100DB
S31500000810490D0000490D0000490D000000000000D0
S3150000082000000000000000000000000001200100A0
S31500000830490D000000000000D12001003521010013
S31500000840610D0000650D0000690D00006D0D0000D2
S31500000850710D0000750D0000790D00007D0D000082
S31500000860810D0000850D0000890D00008D0D000032
S31500000870910D0000950D0000990D00009D0D0000E2
S31500000880A10D0000490D0000490D0000490D0000B2
S31500000890D56C0000E36C0000F16C0000FF6C0000FA
S315000008A00D6D00001B6D0000296D0000376D000006
S315000008B0C50D0000C90D0000CD0D0000D10D0000D2
S315000008C0D50D0000D90D0000DD0D0000E10D000082
S315000008D0E50D0000E90D0000ED0D0000F10D000032
S315000008E0F50D0000F90D0000FD0D0000010E0000E1
S315000008F0050E0000090E00000D0E0000110E00008E
S31500000900150E0000190E0000490D0000490D0000EB
S31500000910490D0000490D0000490D0000490D000079
S31500000920DDC20100490D0000490D0000490D00001F
S31500000930490D0000E17A0100490D0000490D000053
S31500000940490D0000490D0000490D0000490D000049
S31500000950490D0000490D0000490D0000490D000039
S31500000960490D0000490D0000490D00001D0E000054
S31500000970210E0000250E0000290E00002D0E00009D
S31500000980310E0000350E0000390E0000490D000042
S31500000990490D0000490D0000490D0000490D0000F9
S315000009A0490D0000490D0000490D0000490D0000E9
S315000009B0490D0000F57A0100490D0000490D0000BF
S315000009C0490D00003D0E0000490D0000490D0000D4
S315000009D0490D0000490D0000A17A0100B57A010019
S315000009E0490D0000B97A0100CD7A0100490D0000D9
S315000009F0490D0000490D0000410E0000450E0000A3
S31500000A00490D0000490D0000490D0000490D000088
S31500000A10490D0000490D0000D55801002D6F010059
S31500000A20B9350000490D0000490D0000490D0000D0
S31500000A30490D0000490D0000490D0000490D000058
S31500000A40490D0000490D0000490E00004D0E000042
S31500000A50490D0000510E0000550E0000750A0200F7
S31500000A60B5B50100590E00005D0E0000610E0000D4
S31500000A70650E0000690E00006D0E0000490D0000B5
S31500000A80490D0000490D0000490D0000490D000008
S31500000A90490D0000490D0000490D0000490D0000F8
S31500000AA0490D0000490D0000490D0000490D0000E8
S31500000AB0490D0000490D0000490D0000490D0000D8
S31500000AC0490D0000490D0000490D0000490D0000C8
S31500000AD0490D0000490D0000490D0000490D0000B8
S31500000AE0490D0000490D0000490D0000490D0000A8
S31500000AF0490D0000490D0000490D0000490D000098
S31500000B00490D0000490D0000490D0000490D000087
S31500000B10490D0000490D0000490D0000490D000077
S31500000B20490D0000490D0000490D0000490D000067
S31500000B30490D0000490D0000490D0000490D000057
S31500000B40490D0000490D0000490D0000490D000047
S31500000B50490D0000490D0000490D0000490D000037
S31500000B60710E0000750E0000790E00007D0E00006B
S31500000B70490D0000490D0000490D0000490D000017
S31500000B80490D0000490D0000810E0000850E000091
S31500000B90890E00008D0E0000490D0000490D000071
S31500000BA0910E0000950E0000A1580100A158010009
S31500000BB0A1580100A1580100A1580100A158010047
S31500000BC0A1580100A1580100A1580100A158010037
S31500000BD0A1580100A1580100A1580100A158010027
S31500000BE0A1580100A1580100A1580100A158010017
S31500000BF0A1580100A1580100A1580100FFFFFFFF05
S31500000C0010B5054C237833B9044B13B10448AFF340
S31500000C1000800123237010BDC0AE0020000000003C
S31500000C206854030008B5034B1BB103490348AFF3EF
S31500000C30008008BD00000000C4AE00206854030018
S31500000C40A3F5803A704700BF174B002B08BF134B24
S31500000C509D46FFF7F5FF00218B460F461348144AC1
S31500000C60121A25F04FF90E4B002B00D098470D4B6A
S31500000C70002B00D098470020002104000D000D48ED
S31500000C80002802D00C48AFF3008025F0CDF82000F4
S31500000C90290015F059FB24F085FD00BF000008006F
S31500000CA0000000000000000000000420C0AC00208E
S31500000CB02C900220000000000000000072B61648CA
S31500000CC0164901600A6882F3088815488047154965
S31500000CD0154A164B9A42BEBF51F8040B42F8040B54
S31500000CE0F8E7134A134B9A42BEBF51F8040B42F879
S31500000CF0040BF8E7104B00209A42BCBF42F8040BE5
S31500000D00FAE70E490E4A00209142BCBF41F8040B97
S31500000D10FAE762B60B48804708ED00E000080000DD
S31500000D2055370000E855030000800020A8AC0020DD
S31500000D300000002000000020FC400020C0AC002085
S31500000D402C900220490C000014F0AABD524800471E
S31500000D505248004752480047524800475248004709
S31500000D6052480047524800475248004752480047F9
S31500000D7052480047524800475248004752480047E9
S31500000D8052480047524800475248004752480047D9
S31500000D9052480047524800475248004752480047C9
S31500000DA052480047524800475248004752480047B9
S31500000DB052480047524800475248004752480047A9
S31500000DC05248004752480047524800475248004799
S31500000DD05248004752480047524800475248004789
S31500000DE05248004752480047524800475248004779
S31500000DF05248004752480047524800475248004769
S31500000E005248004752480047524800475248004758
S31500000E105248004752480047524800475248004748
S31500000E205248004752480047524800475248004738
S31500000E305248004752480047524800475248004728
S31500000E405248004752480047524800475248004718
S31500000E505248004752480047524800475248004708
S31500000E6052480047524800475248004752480047F8
S31500000E7052480047524800475248004752480047E8
S31500000E8052480047524800475248004752480047D8
S31500000E905248004752480047B7580100B158010070
S31500000EA001200100D120010035210100C98900007F
S31500000EB0018A0000398A0000718A0000A98A0000B0
S31500000EC0E18A0000198B0000518B0000898B00001D
S31500000ED0C18B0000F98B0000318C0000698C00008A
S31500000EE0A18C0000D98C0000118D0000490D000076
S31500000EF0D1A50000F1A5000011A6000031A6000052
S31500000F0051A6000071A6000091A60000B1A600003F
S31500000F10D1A60000F1A6000011A7000031A700002D
S31500000F20BDA00000C9A00000D5A00000E1A00000FF
S31500000F30EDA00000F9A0000025A1000059A10000C5
S31500000F408DA10000C1A10000F5A1000029A20000AA
S31500000F50490D0000490D0000490D0000490D000033
S31500000F60490D0000490D0000490D0000490D000023
S31500000F70490D0000490D0000490D0000490D000013
S31500000F80490D0000490D0000490D0000490D000003
S31500000F90490D0000D1950000490D0000359901006A
S31500000FA055990100A58E0000B98E0000E18E000063
S31500000FB0F58E0000CD8E0000098F0000490D00005F
S31500000FC0490D0000E5A70000490D0000490D00008D
S31500000FD0490D0000490D0000490D0000490D0000B3
S31500000FE0490D000081F0004102E000BF83F000439C
S31500000FF030B54FEA41044FEA430594EA050F08BFAE
S3150000100090EA020F1FBF54EA000C55EA020C7FEA71
S31500001010645C7FEA655C00F0E2804FEA5454D4EBEE
S315000010205555B8BF6D420CDD2C4480EA020281EAB8
S31500001030030382EA000083EA010180EA020281EAF0
S315000010400303362D88BF30BD11F0004F4FEA013142
S315000010504FF4801C4CEA113102D0404261EB410151
S3150000106013F0004F4FEA03334CEA133302D05242D7
S3150000107063EB430394EA050F00F0A780A4F1010493
S31500001080D5F1200E0DDB02FA0EFC22FA05F28018CD
S3150000109041F1000103FA0EF2801843FA05F35941B3
S315000010A00EE0A5F120050EF1200E012A03FA0EFC32
S315000010B028BF4CF0020C43FA05F3C01851EBE3715C
S315000010C001F0004507D54FF0000EDCF1000C7EEB79
S315000010D000006EEB0101B1F5801F1BD3B1F5001FB7
S315000010E00CD349085FEA30004FEA3C0C04F10104D6
S315000010F04FEA445212F5800F80F09A80BCF1004FFF
S3150000110008BF5FEA500C50F1000041EB045141EA80
S31500001110050130BD5FEA4C0C404141EB0101013C49
S3150000112028BFB1F5801FE9D291F0000F04BF014638
S315000011300020B1FA81F308BF2033A3F10B03B3F10A
S3150000114020020CDA0C3208DD02F1140CC2F10C029A
S3150000115001FA0CF021FA02F10CE002F11402D8BFF8
S31500001160C2F1200C01FA02F120FA0CFCDCBF41EAC4
S315000011700C019040E41AA2BF01EB0451294330BD93
S315000011806FEA04041F3C1CDA0C340EDC04F1140470
S31500001190C4F1200220FA04F001FA02F340EA030047
S315000011A021FA04F345EA030130BDC4F10C04C4F18D
S315000011B0200220FA02F001FA04F340EA030029466D
S315000011C030BD21FA04F0294630BD94F0000F83F4B7
S315000011D0801306BF81F480110134013D4EE77FEA9A
S315000011E0645C18BF7FEA655C29D094EA050F08BFE6
S315000011F090EA020F05D054EA000C04BF19461046C7
S3150000120030BD91EA030F1EBF0021002030BD5FEA0A
S31500001210545C05D14000494128BF41F0004130BD32
S3150000122014F580043CBF01F5801130BD01F0004586
S3150000123045F0FE4141F470014FF0000030BD7FEAF9
S31500001240645C1ABF194610467FEA655C1CBF0B46F4
S31500001250024650EA013406BF52EA033591EA030F0B
S3150000126041F4002130BD00BF90F0000F04BF002103
S31500001270704730B54FF4806404F132044FF0000536
S315000012804FF0000150E700BF90F0000F04BF0021AF
S31500001290704730B54FF4806404F1320410F0004515
S315000012A048BF40424FF000013EE700BF42004FEA10
S315000012B0E2014FEA31014FEA02701FBF12F07F438D
S315000012C093F07F4F81F06051704732F07F4208BF44
S315000012D0704793F07F4F04BF41F40021704730B54B
S315000012E04FF4607401F0004521F000411CE700BF97
S315000012F050EA010208BF704730B54FF000050AE01A
S3150000130050EA010208BF704730B511F0004502D51A
S31500001310404261EB41014FF4806404F132045FEA1C
S31500001320915C3FF4D8AE4FF003025FEADC0C18BFC5
S3150000133003325FEADC0C18BF033202EBDC02C2F1B7
S31500001340200300FA03FC20FA02F001FA03FE40EA49
S315000013500E0021FA02F11444BDE600BF7BB972B952
S315000013600029BEBF00204FF0004106E008BF00285C
S315000013701CBF6FF000414FF0FF3000F007BAADF12F
S31500001380080C6DE904CE002909DB002B1ADB00F0FE
S315000013909BF8DDF804E0DDE9022304B07047404223
S315000013A061EB4101002B1BDB00F08EF8DDF804E059
S315000013B0DDE9022304B0404261EB4101524263EB96
S315000013C043037047524263EB430300F07DF8DDF8B8
S315000013D004E0DDE9022304B0404261EB41017047BD
S315000013E0524263EB430300F06FF8DDF804E0DDE9F9
S315000013F0022304B0524263EB4303704753B94AB920
S31500001400002908BF00281CBF4FF0FF314FF0FF3006
S3150000141000F0BCB9ADF1080C6DE904CE00F054F84B
S31500001420DDF804E0DDE9022304B07047430803F069
S315000014305533C01A830803F0333300F033301844B1
S3150000144000EB101000F00F3000EB002000EB004026
S31500001450000E704708B502460B4643EC172BB5EE57
S31500001460C07BF1EE10FA03D4BDE8084000F00CB8DA
S31500001470B1EE477B51EC170B00F006F8404261EBEA
S31500001480410108BD000000009FED0B6B41EC170BFE
S315000014909FED0B5B27EE066BBCEEC66BB8EE464BBC
S315000014A0A4EE457BFCEEC77B16EE101A17EE900AEB
S315000014B0704700BFAFF30080000000000000F03D61
S315000014C0000000000000F0412DE9F047089D0446A9
S315000014D08C46002B40F083808A42174647D9B2FAE1
S315000014E082F242B1C2F1200024FA00F09140974006
S315000014F040EA010C94404FEA1748230CBCFBF8F66F
S315000015001FFA87FE08FB16C143EA014306FB0EF1EC
S31500001510994209D9FB1806F1FF3080F019819942EA
S3150000152040F21681023E3B445B1AA4B2B3FBF8F0CC
S3150000153008FB103344EA034400FB0EFEA64509D916
S315000015403C1900F1FF3380F00581A64540F2028187
S3150000155002383C4440EA0640A4EB0E0400261DB1C6
S31500001560D4400023C5E900433146BDE8F08702B9FF
S31500001570FFDEB2FA82F2002A50D1CB1B4FEA174E99
S315000015801FFA87F80126B3FBFEFC210C0EFB1C3369
S3150000159041EA034108FB0CF38B4207D979180CF199
S315000015A0FF3002D28B4200F2E9808446C91AA3B208
S315000015B0B1FBFEF00EFB101143EA014408FB00F8F4
S315000015C0A04507D93C1900F1FF3302D2A04500F22D
S315000015D0D9801846A4EB080440EA0C40BFE78B42CA
S315000015E009D9002D00F0B1800026C5E9000130467A
S315000015F03146BDE8F087B3FA83F6002E4AD18B4216
S3150000160002D3824200F2B880841A61EB0301012002
S315000016108C46002DA8D0C5E9004CA5E7C2F12003F1
S3150000162020FA03F6974001FA02F04FEA174ED94026
S315000016303043030CB1FBFEF61FFA87F80EFB1611BA
S3150000164043EA014306FB08F1994204FA02F409D978
S31500001650FB1806F1FF3C80F08D80994240F28A80AB
S31500001660023E3B445B1A81B2B3FBFEF00EFB103325
S3150000167041EA034100FB08F38B4207D9791800F1D0
S31500001680FF3C73D28B4271D902383944CB1A40EAF7
S31500001690064678E7C6F1200C03FA06F422FA0CF3A4
S315000016A01C4320FA0CF701FA06F34FEA144E21FA0E
S315000016B00CF11F433B0CB1FBFEF91FFA84F80EFB3D
S315000016C0191143EA014109FB08FA8A4502FA06F2B2
S315000016D000FA06F308D9611809F1FF3048D28A45A5
S315000016E046D9A9F102092144A1EB0A01BFB2B1FB17
S315000016F0FEF00EFB101147EA014700FB08F8B8455B
S3150000170007D9E71900F1FF312ED2B8452CD9023896
S31500001710274440EA0940A7EB0807A0FB02894F458A
S31500001720C64649461AD317D05DB1B3EB0E0267EB36
S31500001730010707FA0CFCF2404CEA0202F740C5E941
S31500001740002700263146BDE8F0872E4628460BE7DF
S315000017500646E9E61846FDE64345E5D2B8EB020E35
S3150000176069EB04010138DFE70846D2E760468DE7FA
S315000017708146B9E7664675E730464AE7ACF1020CA2
S31500001780394413E702383C4424E700BF704700BFE2
S3150000179001F0FF01102A2BDB10F0070F08D010F81C
S315000017A0013B013A8B422DD010F0070F42B3F6D120
S315000017B0F0B441EA012141EA014122F007047FF039
S315000017C000070023F0E80256083C85EA010586EA90
S315000017D0010685FA47F5A3FA87F586FA47F6A5FACC
S315000017E087F68EB9EED1F0BC01F0FF0102F00702D8
S315000017F032B110F8013B013A83EA010313B1F8D183
S315000018000020704701387047002D06BF3546033863
S31500001810073815F0010F07D1013015F4807F02BF9C
S31500001820013015F4C03F0130F0BC0138704700BFED
S3150000183010F8012B11F8013B012A28BF9A42F7D074
S31500001840D01A7047034613F8012B002AFBD1181A49
S31500001850013870470022C0E90022826070470022EA
S31500001860C0E90022826070470022C0E9002282603F
S3150000187070470120704703681B6A184703685B6A54
S31500001880184710B504460B6811689847204610BDE6
S31500001890012A03D0022A03D0002070470160FBE72B
S315000018A00B680360F8E72029F0B510D0046F002319
S315000018B0242500F118069C4209D005FB03F2B7580F
S315000018C08F4202D104321044F0BD0133F3E7002009
S315000018D0FAE770477047F8B505460F4606460024F6
S315000018E02B6FA34210D9B369202B02D001342436C2
S315000018F0F6E73946F069FFF79BFF0028F6D124206A
S3150000190000FB04500430F8BD0020FCE710B5044687
S315000019108C2122F0F2FF204610BDD0F88420032A45
S3150000192038B50CD800F1740400239A420BD014F891
S31500001930015B8D4205D11E3350F8230038BD23F0DC
S31500001940C7FE0133F1E70020F8E70000F8B54FF4D1
S315000019507A7446000025094F6143B1FBF4F43978E7
S315000019600020013581F00101397014F009FA204692
S3150000197012F01CFAAE42F2D1F8BD00BFECC2002054
S31500001980836810B5044613B10322014698472046E2
S3150000199010BD000070B50D4E3378BFF35B8F13F0AA
S315000019A0010410D1304622F0ACFF60B1084D30463C
S315000019B0084B85F8544F2B6022F0AFFF064A2846A5
S315000019C0064922F093FF024870BD00BF28AF0020F1
S315000019D02CAF0020C40C030000800020D5180000A6
S315000019E008B4F0B50E461146044682B0C81D00AFD5
S315000019F020F0070007F11C03ADEB000D53F8042B94
S31500001A006D463B602846B04704F108030F2805EBF6
S31500001A1000062360786007D90022391D204623F08E
S31500001A2011F97B682060A36032462946206823F0BE
S31500001A307FF97B6822680021204608376360D1540D
S31500001A40BD46BDE8F04001B070470000B7EEC00AE1
S31500001A50054B3A2213B5044604498DED000BFFF7FA
S31500001A60BFFF204602B010BDD8AB0200798002004D
S31500001A7000F1080373B504460D460360E1B108465C
S31500001A80FFF7E0FE0F2805EB0006019007D90022BC
S31500001A9001A9204623F0D6F8019B2060A3603246B8
S31500001AA02946206823F049F9019B22680021204637
S31500001AB06360D15402B070BD014822F0FCFF00BF44
S31500001AC0DBAB020010B50446006808B122F013FF34
S31500001AD0204610BD70B50D1E044602DA0B4822F0F2
S31500001AE0EDFF4FF00003C0E900338360284601D0C4
S31500001AF022F016FF46192060A6601DB12A46002175
S31500001B0024F000FA2046666070BD00BF05AC0200F6
S31500001B10F0B58BB0054601A833F0C6FC2B6806214C
S31500001B2028461B6A9847074640B1D5F8880018B181
S31500001B3006221B4933F03CFD01202FE0D5F870C08A
S31500001B40BCF1020F09D9D5F888000028F4D0032388
S31500001B500622144933F02CFDEEE74FF0240E01ACBB
S31500001B600EFB0C5E0FCC0EF104060FC60FCC0FC693
S31500001B7023680622384633600CF10103CEF818209C
S31500001B802B67D5F88430E91881F8742003F11E021A
S31500001B900549013345F82210C5F884300BB0F0BD75
S31500001BA036AC020085AC0200E9472520036F022B04
S31500001BB02DE9F0410546884614460BD9D0F8880031
S31500001BC010B90120BDE8F0810A460323114933F01C
S31500001BD0EFFCF6E703685B6A9847064640B1D5F81E
S31500001BE088000028EDD042460B4933F0E1FCE8E7D7
S31500001BF02F6F24207B1C00FB07572B673D1D0FCC46
S31500001C000FC50FCC0FC5236830462B602023C7E9CC
S31500001C100638D7E7C8AC02000AAD020070B5054623
S31500001C200C464CB1E1682846FFF7F8FFA668204647
S31500001C3022F061FE3446F4E770BD10B50446806BB1
S31500001C4030B18368013B836013B90368DB6898474A
S31500001C5004F108002169FFF7E1FF204610BD0A687C
S31500001C60002302604A680B6042608A68C1E901335A
S31500001C708260704713B50B4602466C46D0E90001F8
S31500001C8084E8030093E8030082E8030094E8030075
S31500001C9083E8030002B010BD2DE9F84307468846E5
S31500001CA01646154604464FF0000944451AD0294603
S31500001CB02046C5F808901035FFF7DCFFA36855F8F5
S31500001CC0082C2046103444F8082C45F8083C55F8F2
S31500001CD0042C54F8043C44F8042C45F8043CFFF763
S31500001CE04FFEE2E7E01B3044BDE8F88370B54FF4E1
S31500001CF0FA7192B00320FFF729FE594824F062FFDB
S31500001D00584824F05FFF012016F0C4F9044628B9AC
S31500001D10554824F057FF204612F0B8FB05225349D8
S31500001D20534816F0DBF9044628B9524824F04AFF16
S31500001D30204612F0ABFB504824F044FF0BA816F0E7
S31500001D403BFA9DF844408CB10B994C4824F03AFF7D
S31500001D50012010F0E3FD4A4B186070B9494824F0A1
S31500001D6031FF64210220FFF7F1FDFAE7464824F02F
S31500001D7029FF204612F08AFBEAE7012010F0CEFD8B
S31500001D80424B186038B9424824F01CFF64210220F7
S31500001D90FFF7DCFDFAE7FFF7FDFD01211BF0CCF9AB
S31500001DA00025FFF7F7FD01211BF0AEF9394824F0B5
S31500001DB009FF022340F68C2237493848384ECDE9D0
S31500001DC000352B4611F09CFE364B10200793364B00
S31500001DD00A93364BCDE903650993CDE9055522F003
S31500001DE09FFD04460146856007A8FFF743FFA268EA
S31500001DF0099B294609922846E268A3600A9B0A9233
S31500001E002246E360FFF748FF294600F11002284604
S31500001E10FFF742FFCDE90440103407A80694FFF708
S31500001E20AFFD03A816F0C6FA284612F02FFB03965C
S31500001E30DDE90445A54204D020461034FFF7A0FD95
S31500001E40F8E7049808B122F056FD9DF844302BB10E
S31500001E5000230BA88DF8443022F016FF12B070BD97
S31500001E6056AD02008CAD0200A9AD0200C3AD020062
S31500001E70CCAD0200D9AD0200F6AD020008AE0200FC
S31500001E80E4C2002061AE020028AE020084BE00203B
S31500001E907EAE02009AAE0200B4AE020061240000DB
S31500001EA090FA0200551F00008318000091180000E8
S31500001EB0091A431E104630B555182C1A002C04DD9D
S31500001EC013F8014F00F8014BF7E70029ACBF501893
S31500001ED0101C30BD2DE9F0418368A2EB01081746BE
S31500001EE0026804460E469B1A984518D9B8F1000FA9
S31500001EF002DA174822F0E2FD404622F011FD39468B
S31500001F00024605463046FFF7D3FF206808B122F0A7
S31500001F10F2FC25604544C4E90155BDE8F0814568F9
S31500001F20AD1AA84508D839463046FFF7C1FF6368A1
S31500001F308342F2D06060F0E70D4430462946FFF751
S31500001F40B7FF626839462846FFF7B2FFF2E700BFDF
S31500001F5005AC0200F0B5ADF27C4D06460F4602AA6E
S31500001F6004A8FFF785FD05980AAC0A2829D803AA14
S31500001F7039462046FFF77CFD606816282BD9236872
S31500001F80173854491844FFF753FCB0FA80F56D0929
S31500001F90204622F079FE04A822F076FE04AAE5B1D6
S31500001FA04D492046FFF764FD2146304622F006FFE4
S31500001FB001232046337622F067FE30460DF27C4D33
S31500001FC0F0BD0B38049B45491844FFF731FC002847
S31500001FD0CDD10125DFE70025DAE739462046FFF7B0
S31500001FE047FD60680D2808D923680E383C49184417
S31500001FF0FFF71EFCB0FA80F56D09204622F044FE7C
S315000020002DB3384F00254FF0FF313868A560C4E97D
S31500002010005510F077FE012810D1334B334A18686B
S315000020204B233349009412680968006816F03CFB9C
S315000020302B462A462946386810F054FB236833603D
S3150000204063687360A368B36002233376B5E704AAB6
S3150000205039462046FFF70CFD6068062808D9236834
S31500002060073824491844FFF7E3FBB0FA80F56D09F9
S31500002070204622F009FE2DB31F4F00254FF0FF31F9
S3150000208038680695CDE9045510F03CFE012813D1B9
S315000020901A49204624F02EFF2046FFF7D3FB4FF0C7
S315000020A000032218214604A8FFF714FF2B462A46F0
S315000020B02946386810F016FB049B3360059B736055
S315000020C0069BC0E71C222946304623F01BFF3576C7
S315000020D073E700BFCEAE02006AB30200C2AE0200D2
S315000020E07EB30200E4C20020E0C2002088BE0020C9
S315000020F0E8C2002076B3020084BE002090BE002015
S3150000210030B50D688368D0E9004205604D684560CA
S315000021108D6885608B60C1E9004230BD1FB5002324
S315000021200C46CDE901330393FFF7EAFF214601A8E8
S31500002130FFF7E6FF01A8FFF7C5FC04B010BD2DE9C7
S31500002140F04F9946531E4FF00C0B85B003EBD3733B
S315000021500546884616464FEA630A0C465B46A24584
S315000021601BDD671C7F007A1E0BFB07F168580BFB13
S3150000217002F1695890ED017A03FB0450D1ED017A22
S31500002180B4EE677AF1EE10FAC8BF174603FB0751A3
S315000021903C46FFF7C3FF0C23E1E7F30710D4023EEA
S315000021A006EBD676B4EB660F0AD161000C204E1C06
S315000021B001FB000100FB045034462944FFF7AEFF43
S315000021C0661E0C27494601A806EBD676FFF747FDA3
S315000021D07610A04507FB045015DA07FB06F3E9184D
S315000021E0EB5893ED017A019BD3ED017AB4EEE77AD1
S315000021F0F1EE10FA07DDFFF791FF731E344603EB8D
S31500002200D3735E10E5E701A9FFF788FF01A8FFF782
S3150000221059FC05B0BDE8F08F70B5054688B00C4690
S315000022201646114602A8641BFFF719FD29463046DB
S31500002230FFF774FF0A4AA41002A905A86243019297
S31500002240FFF70DFD05AB019A00212846FFF777FF42
S3150000225005A8FFF737FC02A8FFF734FC08B070BDED
S31500002260ABAAAAAA1FB50446014601A8FFF7F7FCC8
S315000022702046019A0C3C50F80C3C92ED017AD3EDC5
S31500002280017AB4EEE77AF1EE10FA03DD2146FFF7A4
S3150000229045FFEDE701A9FFF741FF01A8FFF712FC93
S315000022A004B010BD88422DE9F043054685B00F46BF
S315000022B033D000F10C04DFF86880A7422DD0264603
S315000022C02B6856F80C2BD3ED017A92ED017AB4EE19
S315000022D0E77AF1EE10FA1CDD2146641BB14601A82F
S315000022E0A410FFF7BCFC08FB04F4002C08DDA9F1E0
S315000022F01801A9F10C09013C4846FFF70FFFF4E766
S31500002300284601A9FFF70AFF01A8FFF7DBFB3446C1
S31500002310D3E72046FFF7A6FFF9E705B0BDE8F0834F
S31500002320ABAAAAAA2DE9F04F4FF00C0B89B00446D0
S31500002330174698460D46DFF824A100EB0B092E1B25
S31500002340C02E40F38880B6100AFB06F647BBB71EC0
S315000023504FF00C087F1008FB074102A8FFF77FFC2F
S3150000236002A905A8FFF77BFC204605AB3246394695
S31500002370FFF7E5FE05A8FFF7A5FB67B902A8FFF77B
S31500002380A1FB2B1B0C3D0C2B65DD2A46294620465E
S31500002390FFF742FFF5E702A8013FFFF793FBDAE7F5
S315000023A07610E368013F0BFB06F6D3ED016AA359ED
S315000023B0A11993ED017A55F80C3CF4EEC76AD3EDFA
S315000023C0017AF1EE10FA32DDB4EEE77AF1EE10FAA8
S315000023D025DD20464E46FFF793FE29462368D3EDBA
S315000023E0017A336893ED017AB4EEE77AF1EE10FAEA
S315000023F02FDCA1F10C0319460C3B0A6892ED017A19
S31500002400F4EEC77AF1EE10FAF5DC8E421CD32946BB
S3150000241043463A4630463546FFF784FF8FE7F4EEEB
S31500002420E76AF1EE10FA07DDA5F10C01D1E7F4EE4B
S31500002430E76AF1EE10FA01DD4946CAE7B4EEE77A3B
S31500002440F1EE10FAC5DDEFE730460191FFF758FED1
S3150000245001990C36C2E709B0BDE8F08FABAAAAAA6B
S315000024602DE980484249ADF5097D424824F0AAFB92
S3150000247011F07CFB00230A9019A93D481B93CDE976
S31500002480193313F0B1FB044630B939493A4824F000
S3150000249099FB204611F0FAFF384C2378BFF35B8F87
S315000024A0DB070ED4204622F02CFA50B134481BF03C
S315000024B06FF8204622F031FA324A3349304822F08A
S315000024C015FA02222E4917A81CF08EF8179C2CB973
S315000024D02E4824F077FB204611F0D8FF13AD2C4B85
S315000024E0002438A82B602B4B54943893CDE95944DB
S315000024F0FFF70EFB33F044F82749024638A8FFF7EA
S3150000250055FB1CF02BFB2549024638A8FFF74EFB6E
S3150000251019994FF4000338AA086800930144204B28
S315000025205BA80195CDE9024433F036F85BA833F099
S315000025300FF828B11B4824F045FB204611F0A6FFF2
S315000025405B9B1A689A1A1188082940F269851289D4
S315000025509918002A00F064859A588B188A584ABB45
S31500002560114B40F20111114A114823F0B9F800BF8E
S3150000257032B30200E6AE0200FEAE0200DCAE002080
S31500002580E0AE0020008000203B1C000019AF0200D6
S3150000259024932520F4B2020040AF020020B30200CB
S315000025A0000000815DAF02007FAF02008AAF02002B
S315000025B084B00200191D5B68CA18CB58D31A198853
S315000025C0062940F22D85DB88D118002B00F02885DE
S315000025D0D358CB58012B05D07A4824F0F3FA0020C3
S315000025E011F054FF00215BA832F0D2FF8368764ACF
S315000025F0D9689D68754B07900020196015604D439A
S3150000260019F072FE06460C2022F08AF930AA06FB63
S3150000261005F10446FFF75EFA6D4B0C201C60D4E909
S315000026200031C91A049122F07BF930AA04990446B4
S31500002630FFF750FA674B00215BA81C6032F074FF6D
S31500002640012104905BA832F06FFF049BD0ED039A42
S315000026509B680590DA6899680B928268D26808923E
S31500002660079A92ED038A1469049A92ED039A126905
S315000026700C92026958480D9224F0A4FA0B99574817
S3150000268024F0A0FA0899564824F09CFA049B554871
S31500002690996924F097FA059B5B6813B9524824F0B0
S315000026A091FAB7EEC87A514853EC172B24F08AFA00
S315000026B021464F4824F086FAB7EEC97A4D4853ECC6
S315000026C0172B24F07FFA0C994B4824F07BFAB7EECF
S315000026D0E97A4A4853EC172B24F074FA0D994848C6
S315000026E024F070FA8021474824F06CFA11F03EFA83
S315000026F001210E90084613F043FB434B4FF0FF3188
S31500002700186810F0FFFA0128044640F08082202263
S31500002710002128A82E4F23F0F5FB2B4BD3F8009071
S315000027202A4BD3F800803B681D68FFF733F98DF814
S31500002730BC40032328AC2E95CDF8B080064630ADBC
S31500002740CDE92A390FCC0FC594E80F0085E80F00B4
S3150000275000232020CDE92233249322F0E1F80DF165
S31500002760C00C00F1200E04462290CDF890E0CDF882
S315000027708CE0BCE80F000FC495E80F0084E80F005A
S3150000278022A930461AF05CFA0446229808B122F0D3
S31500002790B2F82CB91D4824F015FA0E9B0A93A5E74A
S315000027A00021012013F0ECFA3B68D3E90012079BE5
S315000027B0521A586823F07EFB5BA832F09DFE48B3A0
S315000027C01348E8E7CAB0020088BE0020E8C200202D
S315000027D08CBE0020E0C20020F9B0020009B1020060
S315000027E01AB102002CB1020049B1020068B1020020
S315000027F07AB1020091B10200A2B10200B8B10200A2
S31500002800CBB10200E3B10200E4C2002003B2020031
S3150000281030B20200059B0646804605465B680446C4
S3150000282007460F93049BD3F804900923B7FBF3F3F1
S3150000283003EBC303FB1A10930F9B33440993002346
S315000028400693069B089A934200F0A681099A12F80D
S31500002850013B802B099240F2358144F24F639F423F
S3150000286000F23381B7F5615F34BF00210121C04B0F
S31500002870F6EE00BA0DF1C00B53F82100BD4BB7FBC5
S31500002880F0F203EB810300FB1272D3ED007A092309
S31500002890B2FBF3F308EE903AB74BF8EEE88A03EB97
S315000028A0810368EEA78AE7EEAB8AD3ED007AB34BD5
S315000028B053F8213001EBC101FB1AB3FBF0F308EE2C
S315000028C0103A109B1944AE4BB8EE488A03EB8103CD
S315000028D0D3ED00AA28EE278AAA4B03EB810199F8CB
S315000028E00130A7EEAB8ADDED0C7A07EE103A99F8C7
S315000028F00030F8EEE76A91ED00AA07EE903A99F8F3
S315000029000330B8EE477A00EE103AF8EE677A99F897
S315000029100230B8EE400A37EE667A0BEE103A77EEE2
S31500002920E67A30EE660A27EE097A67EE897A20EEB5
S31500002930090AB8EE4BBAE7EE2A8AB7EEC00AA7EE46
S315000029408A8A3BEE66BA22F0F7FCB7EEEA7A2BEEFD
S3150000295009BA27EE000BF7EEC0ABB7EECB0A22F0B2
S31500002960EBFCF0EE686AB7EECA7A22AB14AA30A87E
S31500002970EAEEEB6A15A927EE000B4FF0000CCDF836
S31500002980C0C0F7EE007AB0EE487ACDED146AEAEEF2
S31500002990AB8AF4EEE76ACDED227AB7EEC00BF1EE24
S315000029A010FAA0EE6B7AA0EE2B8ACDED168AC8BF80
S315000029B01A46D2ED006AF5EE406A8DED157A8DED78
S315000029C01C8AF1EE10FAB4EEE77A48BF0246F1EE41
S315000029D010FA106830AAD8BF0B46002193ED007A92
S315000029E0B5EE407AF1EE10FAF4EEE78A48BF1346E8
S315000029F030AAF1EE10FAD3F800C030914FF0000182
S31500002A00CCBF22AB16AB93ED007AB5EE407A9DEDC6
S31500002A10067AB8EE477AF1EE10FAB4EEE78A48BFC6
S31500002A2013460D9AF1EE10FAD3F800E0CDED227AB6
S31500002A30CCBF22AB1CAB3091D3ED007AF5EE407AD9
S31500002A40F1EE10FA48BF5B461968099B13F8013C82
S31500002A50339018209B1ACDF8D4E08DED307A07EE2E
S31500002A60903A0023CDF8C8C0F8EEE77A2493349163
S31500002A7067EEA97ACDE92233CDED317A21F050FF08
S31500002A805B4600F1180E02460DF1D80B2290CDF8E8
S31500002A9090E09C460832BCE80300DC4542F8080C8E
S31500002AA042F8041C6346F4D1A845CDF88CE013D057
S31500002AB02846A2460C3522A9FFF7D1F8544622A88B
S31500002AC0FFF700F8069B0133BAE644F6D3118F42AE
S31500002AD094BF02210321CAE6A8EB04082A4B4FEA59
S31500002AE0A80B03FB0BFB294B9B4502D1284821F081
S31500002AF0E5FF5A46012A38BF01221BEB020B80F084
S31500002B008D82BBF1000F09D09B4528BF9B460C2048
S31500002B1000FB0BF021F004FF824600E0DA4622A912
S31500002B200AEB0800FFF79BF8D0462146A9420CD0D5
S31500002B3040461191FFF793F8119908F10C080846E1
S31500002B40FEF7C0FF11990C31F0E70D1B114BAD08D4
S31500002B505D4325F0404514B1204621F0CCFE4FF0F0
S31500002B600C0805FB088508FB0BA85544A6E700BF23
S31500002B70A0B30200D0B40200D0B4020090B30200A9
S31500002B80B0B3020040B40200ABAAAAAAAAAAAA0A33
S31500002B904AB20200ABAAAA2A089B01371E440B9B25
S31500002BA0994444F6B5239F427FF43FAE664B1B68BB
S31500002BB0D3E90012654B521A1B68186823F07AF99C
S31500002BC0002363481A46194600680FF08BFDA5429C
S31500002BD024D02E1B5F4A29462046B3105A434FF095
S31500002BE00003B2FA82F2C2F11F025200FFF79AFB0B
S31500002BF0C02E0FDD04F1C00620463146FFF752FB1A
S31500002C00AE420BD030460C36FFF72CFBF8E700251A
S31500002C102C46DCE729462046FFF744FB0023DFF875
S31500002C203491DFED4D8A2E1BB61009FB06F69E4247
S31500002C3040F2968003F101080C279FED488A5F4316
S31500002C40C2462B1B9B1009FB03F39A4571D2E3592D
S31500002C50D3ED023A93ED033A93ED046AD3ED055AA8
S31500002C600C2303FB0AF3E018E35893ED034AD3ED74
S31500002C70024AB4EEC43AD3ED057A93ED045AF1EE66
S31500002C8010FAF4EEE43A54BFB0EE432AB0EE442A0A
S31500002C90F1EE10FAF4EEE75A54BFF0EE632AF0EEC6
S31500002CA0642AF1EE10FAB4EEC56A37FEA57A37EE5D
S31500002CB0427AF1EE10FA77EEC47AB5EEC07A75FE76
S31500002CC0066A35EE645A76EEE26AF1EE10FA75EEB1
S31500002CD0C35AF5EEC06A36EE636A37FE087A67EEC7
S31500002CE0857AF1EE10FAE5EE867A76FE886A27EEA8
S31500002CF0267A77EEC77AF5EEC07AF1EE10FA20DD85
S31500002D00C7EE276AF4EEE86AF1EE10FA19DD00F173
S31500002D100C06AE420FD0AE1BB61009FB06F6002E0F
S31500002D2000F10C0B07DD5946013EFFF7F7F958464F
S31500002D30F5E7434677E70C3D0AF1FF3A2846FEF7EA
S31500002D40C1FE0AF1010A7CE78CBE0020E0C2002029
S31500002D50E4C20020ABAAAAAA9A99993E00000000F4
S31500002D600E9B052E0A9A2746AF4928BF0526981AB4
S31500002D70AE4B10224FF00008009028A8FEF730FE58
S31500002D80AB4A002128A822F059F9014630A8DFF8FD
S31500002D90D8B222F013F8A74930A8DFF88C9222F0B7
S31500002DA089F901461CA8DFF8C4A222F007F830A86A
S31500002DB021F06AFF28A821F067FF9F491CA822F08E
S31500002DC08FF9B04500F0EA803B681022494622A8F8
S31500002DD0D3ED007A5B46FDEEE77ACDED007AFEF79D
S31500002DE0FFFD5246002122A822F028F9014628A814
S31500002DF021F0E4FF8F4928A822F05CF9014630A8AB
S31500002E0021F0DCFF30A91CA822F050F930A821F0EF
S31500002E103BFF28A821F038FF22A821F035FF3B68A8
S31500002E2022A893ED010AFEF711FE844A002122A88A
S31500002E3022F004F9014628A821F0C0FF7D4928A800
S31500002E4022F038F9014630A821F0B8FF30A91CA8B5
S31500002E5022F02CF930A821F017FF28A821F014FF42
S31500002E6022A821F011FF3B6822A893ED030AFEF782
S31500002E70EDFD734A002122A822F0E0F8014628A8B9
S31500002E8021F09CFF6B4928A822F014F9014630A8CE
S31500002E9021F094FF30A91CA822F008F930A821F0EF
S31500002EA0F3FE28A821F0F0FE22A821F0EDFE3B68F3
S31500002EB022A893ED020AFEF7C9FD624A002122A864
S31500002EC022F0BCF8014628A821F078FF594928A825
S31500002ED022F0F0F8014630A821F070FF30A91CA8B6
S31500002EE022F0E4F830A821F0CFFE28A821F0CCFE8D
S31500002EF022A821F0C9FE3B6822A893ED050AFEF739
S31500002F00A5FD514A002122A822F098F8014628A8DA
S31500002F1021F054FF474928A822F0CCF8014630A8F2
S31500002F2021F04CFF30A91CA822F0C0F830A821F0EF
S31500002F30ABFE28A821F0A8FE22A821F0A5FE3B683A
S31500002F4022A893ED040AFEF781FD404A002122A83B
S31500002F5022F074F8014628A821F030FF3C4928A841
S31500002F6022F0A8F8014630A821F028FF30A91CA8B5
S31500002F7022F09CF830A821F087FE28A821F084FED4
S31500002F8022A821F081FE731E434503D029491CA8BF
S31500002F9022F0A6F808F101080C3712E72D491CA803
S31500002FA022F09EF81D9A40F24D439A420DD92A48C6
S31500002FB0264623F007FE1CA821F066FEAE4225D069
S31500002FC030460C36FEF77EFDF8E7244E4FF0FF3113
S31500002FD030680FF097FE012809D11C99204823F08C
S31500002FE089FF002330681A4619460FF07BFB1C49FF
S31500002FF026461C4823F0E6FD1CA821F045FEAE42FD
S3150000300004D030460C36FEF75DFDF8E7002C3FF4A1
S31500003010C4AB204621F06FFCFFF7BFBB9B4676E5AD
S3150000302000231B68FFDE00BF7980020064B2020045
S3150000303068B2020073B2020076B202008DB20200DC
S3150000304097B20200A0B20200A9B20200B2B2020018
S31500003050BCB20200BBB20200BEB2020084BE0020B7
S3150000306090BE002065DA020082B2020085B202003C
S3150000307010B5044640F6587121F03FFC204610BDBD
S3150000308013B5019012F01EFB044618B1019A0021F7
S3150000309022F038FF204602B010BD12F015BBEFF348
S315000030A005835BB1EFF311834FF0200282F31188A1
S315000030B0BFF36F8FBFF34F8F036070470EF0B2BF41
S315000030C0EFF3058313B180F3118870470EF0D8BF74
S315000030D04FF47A73584300F2E730B0FBF3F010F088
S315000030E065BE000010B5044630B9084B4FF4B87100
S315000030F0074A084822F0F4FAFF200FF0BFFA10B191
S315000031002060002010BD43F2DD70FBE748B50200E9
S31500003110ACB50200F3B4020008B530B90B4B40F26F
S31500003120A1110B4A0B4822F0DBFA4B1C00681EBFAC
S315000031304FF47A735943B1FBF3F10FF0E3FD002826
S3150000314043F2DE7018BF002008BD00BF48B502007C
S31500003150C0B50200F3B4020013B530B9154B40F206
S31500003160C311154A154822F0BBFA0068EFF3058330
S31500003170B3B1002401A901940FF07AFC01280CD107
S31500003180019840B10E4B4FF080521A60BFF34F8F3B
S31500003190BFF36F8F204602B010BD43F2DD70FAE731
S315000031A01A4619460FF09EFA012843F2DD7008BF51
S315000031B00020F0E748B50200D2B50200F3B40200E1
S315000031C004ED00E010B5044630B9084B40F2ED11AD
S315000031D0074A084822F084FA04200FF09FFB10B13A
S315000031E02060002010BD43F2DD70FBE760B50200F1
S315000031F0E4B50200F3B4020008B530B90B4B40F257
S315000032000A210B4A0B4822F06BFA4B1C00681EBFC2
S315000032104FF47A735943B1FBF3F10FF061FE0028C6
S3150000322043F2DE7018BF002008BD00BF60B5020083
S31500003230F4B50200F3B4020008B530B9074B40F20A
S315000032402A21074A074822F04BFA00680FF03CFB98
S31500003250002843F2DD7018BF002008BD60B50200EB
S3150000326002B60200F3B4020008B530B9054B4FF4BC
S315000032701071054A054822F033FA00680FF022FF64
S31500003280002008BD60B5020012B60200F3B40200C9
S3150000329038B50D46044630B9084B4FF41471084A48
S315000032A0084822F01DFA0EF0B5FC206010B100208F
S315000032B0257138BD43F2DD70FBE700BF74B502002F
S315000032C023B60200F3B4020037B50025019530B9E4
S315000032D0144B40F26A21144A144822F001FA00689D
S315000032E0E8B1EFF30584B4B101AA0EF0DDFD0128C3
S315000032F004D00F4B4FF41E710B4AEDE7019840B115
S315000033000C4B4FF080521A60BFF34F8FBFF36F8F95
S31500003310284603B030BD0EF03DFD2046F9E743F2E6
S31500003320DD70F6E774B5020033B60200F3B40200AE
S3150000333088B5020004ED00E073B5069D30B9114B67
S3150000334040F2E121104A114822F0CAF9066821F03C
S315000033507F449EB101793046009313460A1E2146EA
S3150000336018BF01220EF064FC204005B12860002839
S3150000337043F2DE7018BF002002B070BD43F2DD706C
S31500003380FAE700BF74B5020040B60200F3B40200CB
S3150000339008B530B9074B40F21731074A074822F003
S315000033A09FF9006818B10EF051FD002008BD43F2E8
S315000033B0DD70FBE774B502004EB60200F3B40200FE
S315000033C010B504460846114634B9084B40F22D3173
S315000033D0074A084822F084F900220FF003F910B1D9
S315000033E02060002010BD43F2DD70FBE799B50200B6
S315000033F05FB60200F3B4020013B530B9144B40F2C5
S315000034004931144A144822F06BF9002400680194EB
S31500003410EFF305839BB1234601AA0FF091FA012829
S3150000342012D1019B13B9002002B010BD0B4B4FF017
S3150000343080521A60BFF34F8FBFF36F8FF3E71A46C0
S315000034400FF050F90128EED043F2DD70ECE700BF33
S3150000345099B502006EB60200F3B4020004ED00E076
S3150000346008B530B90B4B40F271310B4A0B4822F0CC
S3150000347037F9531C00681EBF4FF47A735A43B2FBE8
S31500003480F3F20FF07FFB012843F2DE7008BF002045
S3150000349008BD00BF99B502007AB60200F3B4020077
S315000034A008B530B9054B40F2A131054A054822F06E
S315000034B017F900680FF006FE002008BD99B5020056
S315000034C086B60200F3B4020007B5186C01A99A6328
S315000034D00FF0CEFA019B3BB1054B4FF080521A60BC
S315000034E0BFF34F8FBFF36F8F03B05DF804FB00BFD0
S315000034F004ED00E02DE9F0410D4616461F46044650
S3150000350030B329B34422002122F0FCFC04200FF042
S3150000351005FAE06348B10322002101200FF062F8AA
S31500003520206420B9E06B0FF0CDFD01200EE0A0462F
S315000035303A463146284648F8045B06F047FB2846DB
S315000035402346044A414606F0C7FB0020BDE8F08149
S315000035500420FBE7C93400004FF0FF31C06B0FF0C9
S31500003560BFBCC06B0FF0B0B937B504460191FFF789
S31500003570F3FF012813D1019A211D206806F0E8FB0C
S31500003580054628B12046FFF7ECFF284603B030BDBC
S315000035904FF0FF31206C0FF0B5FBA56BF2E74FF44F
S315000035A06175F2E70123024A1370024A936070477D
S315000035B0F4C2002000000F40FFF7F4BF2DE9F843E6
S315000035C02C4B1C68844228BF044604B32A4E2B4D5C
S315000035D03368DFF8B49023F00103D9F80080336034
S315000035E02B6823F001032B6072B6BFF34F8FBFF336
S315000035F06F8F11F0A7F9224F58B9AB686B602B6833
S3150000360043F001032B603B68013B6B6062B6BDE88B
S31500003610F883013C08FB04F33361336843F001038C
S315000036203360BFF34F8F30BFBFF36F8F154B002250
S315000036301A7062B600BF1978B1B11A700E4A0F4DF2
S31500003640136823F0010313600EF0ECFC2B68204690
S3150000365043F001032B6010F0DDFD3B68013B6B601E
S31500003660BDE8F8430EF00CBD746AD9F80000B4FB4F
S31500003670F0F4E3E7FCC2002000000F4010E000E099
S31500003680F8C20020F4C20020F0C200200C4B6422D5
S315000036901A6002220B4B1A606FF000420A4B1A6046
S315000036A00A4B4FF08072DA60002243F8F02C43F8A0
S315000036B0E82C632243F8EC2C032243F8F02C7047E5
S315000036C0F8C20020F0C20020FCC2002000E100E0A9
S315000036D00B1E10DD00F01F011944BFF34F8F064A81
S315000036E00144C2F85C0220300B1A002BF9DCBFF350
S315000036F04F8FBFF36F8F704700ED00E00B1E10DD9C
S3150000370000F01F011944BFF34F8F064A0144C2F867
S31500003710680220300B1A002BF9DCBFF34F8FBFF382
S315000037206F8F704700ED00E00B1E10DD00F01F01EB
S315000037301944BFF34F8F064A0144C2F87002203085
S315000037400B1A002BF9DCBFF34F8FBFF36F8F704757
S3150000375000ED00E03C4A08B5D2F8883043F4700327
S31500003760C2F88830394A1388580705D5138823F0DC
S3150000377004031B041B0C1380354A1388590705D50F
S31500003780138823F004031B041B0C1380314B1A68A7
S3150000379092044CD5304A5A604FF6FF729A601A6806
S315000037A022F0A00242F020021A602C4B1A68900404
S315000037B043D5294A5A604FF6FF729A601A6822F07A
S315000037C0A00242F020021A60254B1A68D10703D5E1
S315000037D01A6822F001021A601B4B5A69920315D42B
S315000037E05A6912F4003211D1BFF34F8FBFF36F8FB6
S315000037F0C3F85022BFF34F8FBFF36F8F5A6942F45D
S3150000380000325A61BFF34F8FBFF36F8F154A136FA4
S3150000381023F4005313670C4A536943F010035361B2
S31500003820BFF34F8FBFF36F8F00F04AF808BD4CF21D
S3150000383020525A604DF62812ADE74CF220525A60DB
S315000038404DF62812B6E700BF00ED00E00000034089
S31500003850004003400080034020C528D90000C14035
S3150000386010E000E000400E4010B5C4010E4A04F11D
S31500003870814402EBC00004F598042368C3F30223D5
S31500003880C05C04F0BDFB23680246DBB201339A42FA
S31500003890B0FBF3F006D2054B40F6C501044A0548D5
S315000038A021F01EFF10BD00BF1EB7020096B6020033
S315000038B007B702009BB6020000487047C0C300204D
S315000038C008B511F063FF08BD10B592B00420FFF7EC
S315000038D0CBFF14220446002101A822F013FB30225C
S315000038E0002106A822F00EFB01A807F047FB0123E2
S315000038F001A919488DF8043007F068FB04234FF03E
S31500003900004216498DF818304FF480331248CDE93D
S31500003910072303F10133124A03F102230993114BE2
S31500003920B2FBF4F2CDE90A131E2300218DF83030E4
S31500003930A023534306AA0D9341F68463CDE90F33C2
S3150000394040F20123ADF84430234607F0FDFBB0FA00
S3150000395080F0400912B010BD00400D401212780FE1
S3150000396000CA9A3B2A2A463C7FB5684603F086FC85
S31500003970074B694607480093074B0193074B029391
S31500003980074B039303F0C0FD07B05DF804FB00BFCF
S3150000399000C300200000444030C3002060C3002064
S315000039A090C3002010B5E4B04FF49E72002115AC10
S315000039B0204622F0A7FA1420FFF756FF4FF40033F3
S315000039C030212060A3600223009402A8E38140F224
S315000039D0033323820C23E3744FF40063C4E90933F1
S315000039E04023E3622023C4E90D13074C019405F03C
S315000039F0BFFB02A9204605F001FB0449684602F018
S31500003A006FFA64B010BD00BF00C00C40C0C30020F8
S31500003A1038B5044611F0CAFE02F0DEF800F056FB97
S31500003A2001F0A8FD0CB101F099FDFFF74DFF10B9AB
S31500003A300B4823F0C7F80B4D0B4C0C480C4A641B83
S31500003A400C49121A22F036FA22460021284622F0A4
S31500003A5059FAFFF789FFBDE83840FFF7A3BF00BF5B
S31500003A60E9B60200000000814068868100000081FE
S31500003A7000000081908203004B78C0018A781B0207
S31500003A80013A03F4E063D2B213430A78002A0CBF6A
S31500003A9000224FF080721343034A1350BFF34F8F37
S31500003AA0BFF36F8F704700BF0000CC402DE9F7438E
S31500003AB0EC4C00232046ADF804308DF8063004F0B7
S31500003AC0DBFEE94BE94AD3F800199142224640F061
S31500003AD0D882D3F81039DBB20B2B40F0D28263695F
S31500003AE023F000536361636823F4F85343F4B0533F
S31500003AF06360A368002BFCDADB4BDD4ED3F870382D
S31500003B00DB48DA06C3F300114ABF00220122114640
S31500003B1006F024FF0121304606F09EFE01213046C4
S31500003B2006F0E0FE022004F011FAD6F8C03043F0A9
S31500003B300203C6F8C03004F0EDFA336D43F0020319
S31500003B403365336943F002033361336943F08073AD
S31500003B503361336A43F010033362336A5B00FCD58A
S31500003B600024012501A9022720468DF805408DF87D
S31500003B700650FFF781FF01A908208DF805404FF098
S31500003B8006088DF80650FFF777FFBA484FF0180978
S31500003B9003F0B8FEB84804F07FF9B84803F028FFF0
S31500003BA021461B22022003F0B5FF132229460220DC
S31500003BB003F0B0FF02211822084603F0ABFF2022D3
S31500003BC00321022003F0A6FF04F050F821460D223F
S31500003BD0032003F09FFF11222946032003F09AFFDA
S31500003BE020220221032003F095FF03211622084616
S31500003BF003F090FFD6F81032A14823F00803C6F868
S31500003C001032042604F0C6F82946052004F07EF892
S31500003C1004F01CF920460DEB06018DF805608DF8C1
S31500003C200650FFF729FF0DEB060138468DF80560B3
S31500003C308DF80670FFF720FF03230DEB06013046D3
S31500003C408DF805808DF80630FFF716FF0DEB06019F
S31500003C5005208DF805408DF80650FFF70DFF072368
S31500003C600DEB060140468DF806608DF80530FFF72E
S31500003C7003FFF0230DEB060108208DF805408DF8B3
S31500003C800630FFF7F9FE0DEB06010E208DF8054014
S31500003C908DF80650FFF7F0FE0DEB06010F208DF8AC
S31500003CA005408DF80690FFF7E7FE0DEB06011020A4
S31500003CB08DF805408DF80690FFF7DEFE0DEB060148
S31500003CC011208DF805408DF80650FFF7D5FE0DEB57
S31500003CD0060112208DF805408DF80650FFF7CCFE40
S31500003CE00DEB060113208DF805408DF80650FFF701
S31500003CF0C3FE0DEB060119208DF805408DF8065020
S31500003D00FFF7BAFE0DEB06011A208DF805408DF877
S31500003D100650FFF7B1FE0DEB06011B208DF805409E
S31500003D208DF80650FFF7A8FE0DEB06011C208DF856
S31500003D3005408DF80650FFF79FFE0DEB06011D208E
S31500003D408DF805408DF80650FFF796FE0DEB06013F
S31500003D501E208DF805408DF80650FFF78DFE0DEB01
S31500003D6006011F208DF805408DF80650FFF784FEEA
S31500003D700DEB060120208DF805408DF80650FFF763
S31500003D807BFE0DEB060121208DF805408DF80650CF
S31500003D90FFF772FE0DEB060122208DF805408DF827
S31500003DA00650FFF769FE0DEB060123208DF805404E
S31500003DB08DF80650FFF760FE0DEB060124208DF806
S31500003DC005408DF80650FFF757FE0DEB060125203E
S31500003DD08DF805408DF80650FFF74EFE0DEB0601F7
S31500003DE026208DF805408DF80650FFF745FE0DEBB1
S31500003DF0060127208DF805408DF80650FFF73CFE9A
S31500003E000DEB060128208DF805408DF80650FFF7CA
S31500003E1033FE0DEB060129208DF805408DF806507E
S31500003E20FFF72AFE0DEB06012A208DF805408DF8D6
S31500003E300650FFF721FE0DEB06012B208DF80540FD
S31500003E408DF80650FFF718FE0DEB06012C208DF8B5
S31500003E5005408DF80650FFF70FFE0DEB06012D20ED
S31500003E6010E000BF0080CA4000C0CA406959AC5784
S31500003E700040C840B0B9020044BC020050BC020079
S31500003E80B8B902008DF805408DF80650FFF7F4FD2D
S31500003E900DEB06012E208DF805408DF80650FFF734
S31500003EA0EBFD0DEB06012F208DF805408DF8065031
S31500003EB0FFF7E2FD0DEB060130208DF805408DF889
S31500003EC00650FFF7D9FD0DEB060134208DF805608D
S31500003ED08DF80660FFF7D0FD0DEB060135208DF855
S31500003EE005408DF80650FFF7C7FD0DEB060136209D
S31500003EF08DF805408DF80650FFF7BEFD0DEB060167
S31500003F0037208DF805408DF80650FFF7B5FD0DEB0F
S31500003F10060138208DF805408DF80650FFF7ACFDF8
S31500003F200DEB060139208DF805408DF80650FFF798
S31500003F30A3FD0DEB06013A208DF805408DF80650DD
S31500003F40FFF79AFD0DEB06013D208DF805408DF833
S31500003F500650FFF791FD0DEB06013E208DF805801A
S31500003F608DF80670FFF788FD0DEB060140208DF8F1
S31500003F7005408DF80650FFF77FFD0DEB0601412049
S31500003F808DF805408DF80650FFF776FD0DEB06011E
S31500003F9042208DF805408DF80650FFF76DFD0DEBBC
S31500003FA0060143208DF805408DF80650FFF764FDA5
S31500003FB00DEB06014C208DF805408DF80650FFF7F5
S31500003FC05BFD3A4B3A4C1A6822F007021A601A68EF
S31500003FD022F0380242EA09021A601A6822F0C00288
S31500003FE01A605A6822F003025A609A6822F00302A5
S31500003FF09A60DA6822F49F6222F00702DA601A6990
S3150000400022F002021A615A6922F0050232435A610D
S315000040105A6922F002025A619A6922F002029A61F2
S315000040209A6922F001029A619A6D22F001029A655C
S31500004030DA6D22F00102DA651A6E22F001021A66C2
S315000040405A6E22F001025A669A6E22F001029A66B0
S31500004050DA6E22F00102DA662368164AC3F30223F7
S31500004060D05C03F0CDFF2368DBB22B449842B0FB53
S31500004070F3F215D2104B40F6C501104A104821F054
S315000040802FFB536923F000535361536823F4F8530D
S3150000409043F4A85353600B4A9368002BFCDA2BE5D4
S315000040A0094B1A6003B0BDE8F08300BF00400E4024
S315000040B00000CC40CCB9020096B6020096B90200C8
S315000040C09BB602000080CA4004800020FFF7EEBCC9
S315000040D0104642B100231373536833B11B6823B1F2
S315000040E00A460221184703207047012070471046F0
S315000040F042B100235373536833B11B6823B10A4698
S315000041000121184703207047012070472DE9F0432D
S31500004110044687B018B9012007B0BDE8F083837B59
S31500004120002BF8D04268926851799942F3D303F193
S31500004130005312680C2740F6024C013B02EBC30603
S3150000414012F8335000239D42E5D907FB03F270684D
S315000041508118825A62453BD10D7A00239D422DD8A3
S315000041600026CB782374002ED5D000250120DFF859
S3150000417070802F46DFF86C90A6603379AB42CBD9BE
S315000041800623B2688DF808706B43D118D25C8DF89F
S315000041900620D2094B88ADF804304B788DF80730ED
S315000041A018D0022B02D12773CDF80C9003AA01A9CF
S315000041B020680135049408F021F9DEE71A01486801
S315000041C000EB0316805CE27B9042CAD00133C5E760
S315000041D00133B8E7022B04BF6773CDF80C80E5E71F
S315000041E0EF400000D1400000836870B5044693B1EB
S315000041F0002501200626A3681A79954202D30023DA
S31500004200A36070BD9A6806FB05F320680135D15C92
S3150000421008F013F9EFE70120F3E7000070B50A4C48
S315000042200E46154623685BB9214601F00FFD30B9ED
S3150000423023683BB14FF47F436660E3812C6070BD19
S315000042400220FCE70320FAE70000002010B5044630
S3150000425030B1FFF7C9FF0023C4E90033E38110BD85
S315000042600320FCE77FB504461546002A60D00028E7
S315000042705ED0CBB2013B032B54D8DFE803F01E021D
S31500004280064000238373012414E04368002BFAD010
S315000042902A78837B9A42F6D0FFF7A6FF2B78204632
S315000042A0A3730023E373FFF731FF044610B12148DF
S315000042B007F010FE204604B070BD2B68227C1979E9
S315000042C098889142DFD12E1DADF8080058880096D7
S315000042D005F10806ADF80A00287B01968DF80C005A
S315000042E05B78222B07D163686A460B2120461B6840
S315000042F098470446DEE7104807F0ECFDC3E743683D
S31500004300002BC0D02D88037CB3EB152FBBD1EDB2AB
S31500004310C37BAB42B7D0FFF767FF2046E573FFF7D5
S31500004320F5FEE6E70A460548054907F0D3FDAAE784
S315000043300324BFE75CBC020076BC0200A8BC0200F6
S31500004340BBBC020038B5044648B1057B4DB9012017
S315000043502073206808F03EF800B1257338BD0320AD
S31500004360FCE70220FAE738B5044648B1457B4DB96B
S3150000437001206073206808F033F800B1657338BD1A
S315000043800320FCE70220FAE72DE9F04390F8943089
S3150000439087B004461BB9012007B0BDE8F083426828
S315000043A0926851799942F6D31268002AF3D003F144
S315000043B000530C27013B02EBC30612F833500023CF
S315000043C09D42E8D907FB03F270688118825C082ACF
S315000043D02CD10D7A00239D421DD80027CB7884F876
S315000043E09530002FD7D000260120DFF88C80354687
S315000043F0DFF88890A7603B79B34219D80123E560BE
S31500004400C4F88450C4F8883084F88C5084F88F50EF
S3150000441084F89650C0E71A01486800EB0317805CE1
S3150000442094F893209042D9D00133D4E70133C7E7FB
S315000044300623B9688DF8085073430136CA181079F7
S315000044408DF80900CB5C20688DF806305188ADF8F0
S31500004450041001A9527804948DF80720DA0903AAFA
S3150000446015BF84F8913084F89230CDF80C90CDF8D1
S315000044700C8007F0C3FFBEE78D4A0000D14800005C
S31500004480836870B5044693B1002501200626A3680B
S315000044901A79954202D30023A36070BD9A6806FB81
S315000044A005F320680135D15C07F0C7FFEFE701206F
S315000044B0F3E70000F8B5214C0F4616462568002D97
S315000044C03AD104F198032146A36104F1B803E361EC
S315000044D004F1C803236204F1DC03E36304F1E4039B
S315000044E0236404F1F003236501F0B0FB30B184F8D6
S315000044F0945084F89350C4E90055F8BD236833B945
S31500004500606084F8940084F893000320F5E7FF23A5
S31500004510702284F8940084F89330236A606167609F
S315000045201A700A229870DA711873587384F88D001D
S3150000453084F88E003460E0E70220DEE714000020F5
S3150000454010B5044648B1FFF79BFF0023C4E90033CA
S3150000455084F8943084F8933010BD0320FCE7F0B55E
S3150000456004468FB01646002A00F06F81002800F03E
S315000045706C81C9B20139052900F26B81DFE811F0BF
S3150000458034010600430067008C00BC00002301AA2A
S31500004590052180F8943043681B689847019B0546BF
S315000045A0002B00F05481013B01AE4FF0010C04F1E9
S315000045B0440E84F89030B3681BB373680BB3331D95
S315000045C00EEB0C170FCB87E80F0094F890205FFADC
S315000045D08CF39A4205D30CF1010C1036BCF1040F92
S315000045E0E9D1226A702313700A23D37100239370D2
S315000045F01373537384F88D3084F88E3028460FB0C9
S31500004600F0BD0125E1E74368002B00F0228190F818
S31500004610943012789A4200F005810BB1FFF730FF13
S315000046203378204684F89430002384F89330FFF7DB
S31500004630ABFE05460028E1D11F23A26994F892102B
S31500004640206807F0CDFE012384F88D30D6E7436855
S31500004650002B00F0FE80168890F89530B3EB162FED
S3150000466040F0F780F6B290F89330B34200F0DA806B
S31500004670FFF706FF2046FFF787FE054648B91F23CA
S31500004680A26994F89210206807F0AAFE012384F824
S315000046908D3084F89360B1E74368002B00F0D98031
S315000046A08368002B00F0D58090F886307BB91178AE
S315000046B090F891200120914207D184F8860084F871
S315000046C08E302068317807F0EFFE054600E00125C0
S315000046D094F88730002B91D1317894F8922091424A
S315000046E08CD1012284F88D30206884F887203178B7
S315000046F007F0DAFE054681E74368002B00F0A98043
S315000047008368002B00F0A58090F88950012D3FF4B6
S3150000471075AF90F88650012D40D1127890F89130FF
S315000047209A4209D1002380F8863080F88E300068DE
S31500004730317807F0CAFE054694F88730012B0ED172
S31500004740327894F892309A4209D10023206884F88E
S31500004750873084F88D30317807F0B7FE054694F837
S315000047608F30023B012B29D894F88A30012B17D1C0
S31500004770B4F88630002B7FF441AF94F88D20206882
S31500004780012A94F8921084F88A3025D184F88D3065
S3150000479007F02AFE002384F88F302FE70125CBE7A8
S315000047A094F88E302068012B94F891100CD184F87F
S315000047B0963007F019FE002384F88F3094F88A307B
S315000047C0012B7FF41BAFD3E70D23E26907F002FE4E
S315000047D0012384F88E30EEE71F23A26907F000FE5E
S315000047E0012384F88D30D5E713681A7802F01F0587
S315000047F0012D2ED190F89500197988427FF4FEAEEE
S315000048005978FE2903D0FF290ED00525F6E65988EA
S315000048100029FAD1DB88012BF7D11206F5D59034A1
S31500004820C6E901450025E9E659880029EDD1DB886E
S31500004830002BEAD11306E8D440F20112A4F88850FE
S3150000484084F88A50A4F88620ECE70325D6E60425EA
S31500004850D4E60125D2E630B5036985B000250446C5
S315000048600093836902955A7BC36800EB02118DF8A9
S315000048700C20B3F5803F6A46C96D28BF4FF48033DC
S315000048808B4294BF01930191042143681B689847AA
S31500004890A36922695B7B94F8911004EB03135B6DAB
S315000048A09A4206D22068DDE9013207F093FD05B091
S315000048B030BD0123206884F88B5084F886300223AB
S315000048C084F8855084F88F3007F0EEFD2846EEE731
S315000048D07FB54B6814460E465A1C2CD194F8853089
S315000048E0A3B163681D688DB1A269D37B03F07F0312
S315000048F0282B0BD100230968204602910121019340
S315000049000093537B6A468DF80C30A84794F896506E
S31500004910012D03D00125284604B070BD0023E269AD
S3150000492094F8911084F896300D23206807F052FD14
S31500004930A4F88E50EFE7E26894F88B5093429CBF40
S31500004940D21AE260012D0CD1002394F89110206850
S3150000495084F88B3084F8865084F8853007F0A4FDFF
S31500004960D9E794F88520BAB90D2BD3D10B6819680D
S31500004970264B9942CED1012584F88E201F23A269A9
S3150000498094F89210206884F8885007F029FD84F87E
S315000049908D50C0E701252AE062681568002DB9D060
S315000049A001933368029323690093A3695A7B8DF8B8
S315000049B00C20DB7B03F07F03282B03D16A46012101
S315000049C02046A847E368002BE4D0A36920465A7B1B
S315000049D0736804EB0212926DB3FBF2F2236913447F
S315000049E02361FFF738FFE3680546002B93D10023C8
S315000049F0E26994F8911084F885300123206884F8E0
S31500004A008E300D2307F0E6FC85E700BF5553425371
S31500004A1030B5036985B00025044600938369029585
S31500004A205A7BC36800EB02118DF80C20B3F5803F6A
S31500004A306A46096E28BF4FF480338B4294BF0193B8
S31500004A400191032143681B689847A36922695B7B30
S31500004A5094F8921004EB03135B6D9A4206D2206819
S31500004A60DDE9013207F0BCFC05B030BD012320684A
S31500004A7084F88C5084F88730022384F8845084F8B4
S31500004A808F3007F011FD2846EEE700007FB514468B
S31500004A904A680E46531C2CD194F88430A3B163683F
S31500004AA01D688DB1A269D37B03F07F032A2B0BD13E
S31500004AB00023096820460291022101930093537B4B
S31500004AC06A468DF80C30A84794F88D50002D40F0BA
S31500004AD0AB81B4F886304BB91F23A26994F89210C3
S31500004AE0206807F07DFC012384F88D30284604B049
S31500004AF070BDE3689A429CBF9B1AE360A369DB7BA7
S31500004B0003F0BF03152B06D163681B681BB1002297
S31500004B100B212046984794F88C30012B0CD10025A8
S31500004B2094F89210206884F8873084F88450A4F8AA
S31500004B308C5007F0B9FCD9E794F88450002D37D093
S31500004B40736801933368029323690093A3695A7BC0
S31500004B508DF80C2062681568CDB1DB7B03F07F030E
S31500004B602A2B03D16A4602212046A847E5688DB163
S31500004B70A36920465A7B736804EB0212926DB3FB5D
S31500004B80F2F2236913442361FFF742FF0546E36807
S31500004B90002BABD1002384F884300D23E26994F80E
S31500004BA09110206807F016FC012384F88E309DE7EB
S31500004BB094F88830002B00F01E8173681F2B40F09C
S31500004BC01A81A369994A1968914240F014815E7B63
S31500004BD016F0F00F40F00F81997B11F0E00240F0E3
S31500004BE00A8194F890000130864280F004810139F0
S31500004BF00F2900F20081E1698D4884F88D20E2607A
S31500004C00086058688A60486084F8882093F90C0028
S31500004C109E680028197B02DB321E18BF012200287D
S31500004C2084F8842008DA3EB1012094F8862084F8BE
S31500004C30850022B1054659E7002284F88520DB7BF2
S31500004C40032B04D0226A0020907010735073CA0997
S31500004C502F2B666284F8392050D8112B0CD8032BE1
S31500004C6000F09480042B00F09D80002B00F09280D1
S31500004C70204600F039FC57E0123B1D2BF8D801A264
S31500004C8052F823F0234D0000714C0000714C0000D7
S31500004C90B54D0000714C0000714C0000714C0000D5
S31500004CA0714C00000B4D0000D54D0000714C00000A
S31500004CB0C54D00009D4D0000714C0000714C000078
S31500004CC0714C0000714C0000BD4D0000714C00009D
S31500004CD0AD4D0000714C0000714C0000854D000088
S31500004CE0714C00001B4D0000714C0000714C00001F
S31500004CF0714C0000714C0000CD4D00009E2B55D02C
S31500004D0007D8552B56D05A2BB2D1204600F054FA6C
S31500004D100AE0A82B36D0AA2BAAD1204600F0FCF92F
S31500004D2002E0204600F0AFF9236A05469B7843B1BE
S31500004D30E3691A7B2AB9A269D27B032A1CBF012226
S31500004D401A73052D0ED194F88430012B46D194F8B0
S31500004D5087200AB984F88C30002384F88430022333
S31500004D6084F88F3094F88430002B7FF4BFAE94F82B
S31500004D708530002B7FF4BAAE94F88B30002B7FF48D
S31500004D80B5AE0AE7204600F0A2F9CDE7204600F0CE
S31500004D9059F9C9E7204600F0E4F9C5E7204600F0D6
S31500004DA03CFBC1E7204600F019FBBDE7204600F0BA
S31500004DB053FAB9E7204600F023FAB5E7204600F09B
S31500004DC093FAB1E7204600F049FBADE7204600F034
S31500004DD0E9F9A9E7204600F062FBA5E794F88530DB
S31500004DE0012BBCD194F886200AB984F88B300023B5
S31500004DF084F88530B3E794F89210206807F054FBE6
S31500004E0094F89110206807F04FFB002384F88D304A
S31500004E10012384F88F3040F20113A4F886304FF452
S31500004E208073A4F8883061E600255FE65553424357
S31500004E305553425330B484690129647B00EB041452
S31500004E40A56D5468126804FB05F40261C46002D1C2
S31500004E5030BCFFF700BD30BCFFF7DABDD0E9093240
S31500004E6070B504464BB9C1698B6012B910460A7316
S31500004E7070BD022218460A73FAE790F83910002925
S31500004E806ED0C56942B9AB60134694F89110E26AD8
S31500004E90206807F09FFA0FE090F83A10002954D0E6
S31500004EA0934290F8381013D99B1A0129AB60EBD1C5
S31500004EB000F13002FFF7BEFFE36908B918735CE042
S31500004EC001221A730322236A9A7011221A7354E07C
S31500004ED04FF00002AA6010D1012907D100F130027B
S31500004EE0FFF7A8FFE36940BB1873C1E7C26A90F8F1
S31500004EF09110006807F06EFAF4E7012916D182696D
S31500004F00527B00EB0212966DB3FBF6F206FB1233F0
S31500004F10426300F13002AB60FFF78CFFE36960B9D2
S31500004F2094F83820012ADFD102220CE0C26A90F8F8
S31500004F309110006807F04EFAF0E701221A73032277
S31500004F40236A9A7011221A7392E7C26AAB600B4603
S31500004F5090F89110006807F03DFAE3690222B5E780
S31500004F606AB990F89210006807F09EFA636AE269DF
S31500004F7093600123137384F88730052078E790F84F
S31500004F803A1059B190F89210006807F08DFAE3696B
S31500004F90626A9A6002221A730123ECE79342C5699A
S31500004FA090F8386019D99B1A012EAB600DD100F12B
S31500004FB03002FFF73FFFE36900283FF47FAF01228D
S31500004FC01A730322236A9A7080E7134690F89210A8
S31500004FD0C26A006807F004FAEDE7A96016D1012E4F
S31500004FE00DD100F13002FFF725FFE36900283FF4F9
S31500004FF07BAF01221A73236A03229A70A3E7C26A5F
S3150000500090F89210006807F0EBF9EEE7012E12D146
S315000050108269527B00EB0212966DB3FBF6F206FB39
S315000050201233426300F13002AB60FFF703FF002842
S31500005030E1D1E36974E7C26A90F89210006807F05C
S31500005040CFF9F4E710B5036A86B004460493836982
S3150000505003F10F025B7B8DF81430436801921B68E5
S3150000506013B101AA0F21984712232046A3620123F8
S3150000507084F83A30236AE362002384F83830FFF775
S31500005080EDFE06B010BD10B5036A86B00446049363
S31500005090836903F10F025B7B8DF81430436801923C
S315000050A000221B68CDE9022213B101AA0821984704
S315000050B0029B2046A362012384F83A30039BE362F5
S315000050C0002384F83830FFF7C9FE06B010BD8269A8
S315000050D010B4D37BD2F81110282B09BA15D1D38A74
S315000050E05BBA9BB2012480F83A40527B00EB021275
S315000050F0926D80F838405A435DF8044B8262002274
S31500005100C0E90C13C262FFF7A9BEA82B0ABFD2F8EA
S31500005110153000231BBAE5E7826910B4D37B00245F
S31500005120D2F811102A2B09BA14D1D38A5BBA9BB2D2
S3150000513080F83A40527B00EB0212926D5A43C0E966
S315000051400A24012280F838205DF8044BC0E90C13CC
S31500005150FFF784BEAA2B0ABFD2F8153023461BBA26
S31500005160E6E730B5036A87B004460493836903F122
S315000051700F025B7B019201228DF81430002380F828
S315000051803A208362C36280F83830FFF767FE6368AF
S3150000519005461B681BB101AA0721204698472846E9
S315000051A007B030BD00220121826280F83A10C26247
S315000051B080F83820FFF752BE10B5036A86B0044661
S315000051C00493836903F10F025B7B8DF81430436807
S315000051D0019200221B68CDE9022213B101AA09211E
S315000051E09847029B2046A362012384F83A30039B2A
S315000051F0E362002384F83830FFF730FE06B010BDB6
S3150000520010B5036A86B004460493836903F10F025E
S315000052105B7B8DF814304368019200221B68CDE950
S31500005220022213B101AA0A219847029B2046039A3B
S31500005230A3620023E26284F83A3084F83830FFF73C
S315000052400DFEA3691B7CDB0704D5236A05229A7031
S3150000525024221A7306B010BD836930B585B05D7B14
S31500005260002304468DF80C50CDE9013343681B68D2
S3150000527013B101AA1021984794F89030AB423FBF72
S31500005280236A052200259A70029931B1019B13B356
S3150000529004EB0515C5E915310821A069437BC07BE0
S315000052A00533252804EB03135A68A16202F1FF3285
S315000052B012BA12D1E16B0A609B681BBA4B600123DC
S315000052C02046E16284F83A30002384F83830FFF74C
S315000052D0C5FD05B030BD1946DFE7216C4A609B6805
S315000052E01BBA8B60EBE7000070B53B4B044688B0F9
S315000052F01868A36900905D7B0023CDE905336368D8
S315000053008DF81C501B681BB105AA11212046984731
S3150000531094F89030AB423FBF236A052200259A706D
S31500005320069B2BB1059A1AB104EB0515C5E91523A1
S31500005330A36994F84C50997DDA7D42EA0121002D4B
S3150000534048D06269002A14BF022003205B7B002D2F
S315000053504FEAC00503F105038DF8035004EB031370
S315000053605A689E6812BA33BA0392049314BF4FF078
S3150000537000734FF0807301920C22334302EBC0029C
S315000053801BBA8A42029328BF0A46236D9DF8001075
S3150000539019709DF80110236D59709DF80210236D48
S315000053A0997001A9236DDD70042311F8015B206D4E
S315000053B0C55401330C2BF8D101232046A26284F890
S315000053C03A30236DE362002384F83830FFF746FD58
S315000053D008B070BD2846B9E714AB020070B50025C9
S315000053E001260446856280F83A60C56280F8385026
S315000053F0FFF734FDE3691A7B022A0DD0A269127CFD
S3150000540002F01F02172A1DBF05221E73236A1D7391
S315000054101EBF9A7024221A7370BD30B5036A87B016
S3150000542004460493836903F10F025B7B0192012218
S315000054308DF81430002380F83A208362C36280F826
S315000054403830FFF70BFD636805461B681BB101AAE0
S315000054500C2120469847284607B030BD30B5036A70
S3150000546087B004460493836903F10F025B7B0192C4
S3150000547001228DF81430002380F83A208362C3623B
S3150000548080F83830FFF7EAFC636805461B681BB1F5
S3150000549001AA0D2120469847284607B030BD30B5F1
S315000054A0036A87B004460493836903F10F025B7BAA
S315000054B0019201228DF81430002380F83A2083628D
S315000054C0C36280F83830FFF7C9FCE36905461B7BE9
S315000054D0022B06D063681B681BB101AA0E21204669
S315000054E09847284607B030BD10B4C1690022012490
S315000054F08A600C730521036A8262997020215A73AF
S3150000550019735DF8044BFFF7A9BC000010B50E4CEB
S315000055100E4BD4F8002FC2F30222134493F8F00086
S3150000552002F06EFDD4F8003F0246DBB201339A4228
S31500005530B0FBF3F006D2064B40F6C501054A064815
S3150000554020F0CEF810BD00BF0000CC40B3BD020075
S3150000555096B602008CBD02009BB6020010B5FFF79E
S31500005560D5FF012203464FF4E1310620BDE8104085
S3150000557006F08CBB984B99495A69084612F4003FCD
S315000055802DE9F041964D2E460ED0BFF34F8FBFF357
S315000055906F8F5A6922F400325A610022C3F85022F2
S315000055A0BFF34F8FBFF36F8F8B4A5369DB0324D54D
S315000055B00023C2F88430BFF34F8F536923F480333E
S315000055C05361BFF34F8FD2F8803043F6E07CC3F3CC
S315000055D0C907C3F34E335B0103EA0C083C4648EAAD
S315000055E0847E013CC2F874E2F9D2203B13F1200F0D
S315000055F0F2D1BFF34F8FBFF36F8FBFF35F8F764A42
S31500005600536A23F480335362764B5A6822F00102C0
S315000056105A60BFF34F8FBFF36F8F1022724CDA6060
S31500005620724A1A61724ADA60724A1A61DC601A6159
S315000056301322714CDA60714A1A611422DA60704AD8
S315000056401A61DC601A616F4ADA606F4A1A616F4A42
S31500005650DA606F4A1A616F4ADA606F4A1A616F4AF6
S31500005660DA606F4A1A61002225FA02F4012C0CD87E
S315000056704AB36C4CB4FBF5F705FB17453DB16A4BD5
S31500005680B1216A4A6A4820F02BF80132ECE701257D
S315000056909540B54203D0674BB221644AF2E7042A2B
S315000056A003D8654BB321614AECE7013A24F01F04A5
S315000056B0520044F01A0402F03E02DC6042F04272EC
S315000056C042F001021A615D4A5D4CDA605D4A1A6178
S315000056D05D4ADA605D4A1A615D4ADA605D4A1A61BE
S315000056E0DC601A61002221FA02F4012C0AD82AB3DE
S315000056F0594CB4FBF1F501FB154129B1574BD521A6
S315000057004A4ABFE70132EEE701219140814203D0C8
S31500005710534BD621454AB5E7042A03D8464BD72131
S31500005720424AAFE7013A44F01F045200DC6002F03F
S315000057303E0242F0447242F001021A61BFF35F8FEB
S3150000574005225A60244B5A6A42F480325A62BFF3E9
S315000057504F8FBFF36F8F5A6912F4803223D1C3F88B
S315000057608420BFF34F8FD3F8802043F6E074C2F352
S31500005770C900C2F34E32520102EA0406014646EA65
S3150000578081750139C3F86052F9D2203A12F1200F1F
S31500005790F2D1BFF34F8F5A6942F480325A61BFF398
S315000057A04F8FBFF36F8F0C4B5A6912F4003211D131
S315000057B0BFF34F8FBFF36F8FC3F85022BFF34F8FE6
S315000057C0BFF36F8F5A6942F400325A61BFF34F8FAD
S315000057D0BFF36F8FBDE8F08100ED00E00020000010
S315000057E00080000090ED00E0120000603F00100015
S315000057F01100008039001003150000203B00100343
S31500005800230003031600202027000303170030207F
S3150000581025000303180000302F000306190000803E
S315000058203300030300000020D1BC0200A3BD020028
S31500005830E9BC020021BD02003CBD02001B00004085
S315000058401E0080412F0010031C0000412900100398
S315000058501D0040412700100300002C2043BD02001C
S3150000586067BD0200C64A46F22063D158C9072DE932
S31500005870F0410BD40121D150BFF34F8FBFF36F8F8F
S3150000588002F5CC4230321368DB07FCD50A22BD4B49
S31500005890052402251A60042143F8042C012043F84C
S315000058A0082C4FF00C0C43F80C2C1527B64BB74EB2
S315000058B01C601D6443F8044CDD63B54BDFF80CE354
S315000058C01960C3F8F0030023DFF804833360B14E98
S315000058D037600327C6F840C0A6F50B26A6F6EC7679
S315000058E03260C6F840C046F8200C376246F81C0CF9
S315000058F0C6F894307762A84E3060C6F8FC520E4463
S315000059003060C6F8E4520E443060C6F8E4520E44E5
S315000059103060C6F8E4520E443060C6F8E4520E44D5
S315000059203060C6F8E4520E443060F83EC6F8FC001B
S31500005930C6F80001C6F80401C6F80801C6F80C014D
S31500005940C6F8E45335607560C6F8C403443E326059
S3150000595072603266C6F84412C6F84812C6F8A452F7
S315000059601026CEF80060CEF87830CEF80460CEF877
S3150000597074304FF0200EC8F800E0C8F804E0DFF8F5
S3150000598054E2CEF80030CEF8B4348E44CEF800306F
S315000059900EF5107ECEF86C32CEF80050CEF80450DC
S315000059A0AEF5407ECEF80070CEF804700E27CEF825
S315000059B04472CEF848720EF58E7E784F3960A7F5A0
S315000059C0BA77C7F87811C7F8B833C7F8BC332437A5
S315000059D047F8243C47F8203C47F81C3C47F8183C5D
S315000059E047F8143C47F8103C47F80C3C47F8083C8D
S315000059F047F8043C3B607B60BB60FB603B617B61BE
S31500005A00BB61FB613B627B62BB62FB623B637B63A8
S31500005A10BB63FB6340373B607B60BB60FB603B6105
S31500005A207B61BB61FB613B627B62BB62FB623B638A
S31500005A307B63BE63C7F88C301127CEF80070CEF8B2
S31500005A400470CEF8A8030EF1080ECEF80070CEF85A
S31500005A5080038E44CEF80070CEF880038E44CEF8D4
S31500005A600070CEF880038E44CEF800704C4F38603C
S31500005A704C484D4F0260A0F53D70C0F8F822C0F8C2
S31500005A80FC22C0F80023C0F80423C0F808230260F3
S31500005A9040F8342C40F8202C3C60444F3960796043
S31500005AA0B960F96039617961B961F9613962796220
S31500005AB047F8041C47F8081C40F8202CC0F8806002
S31500005AC0C0F88460C0F88860C0F88C60C0F8906048
S31500005AD0C0F894608267C0F81421C0F810213448D9
S31500005AE0046034480260C0F8B420C0F8B82012221E
S31500005AF0C0F8A420C0F8A8201322C0F8AC20C0F833
S31500005B00B0202D4A1160903242F88CCC42F8881CA5
S31500005B1042F8841C42F8801C42F87C1C42F8983CEF
S31500005B205360136002F53A0202F53C421560234ABF
S31500005B301360C2F8B4C0C2F8B8C0C2F8A430C2F844
S31500005B40A830C2F8AC30C2F8B0301D4B1C6043F828
S31500005B500C4C1C4B1C605C6043F8684C43F8644C6E
S31500005B6043F8D44C43F8D04C43F87C4C43F8804C73
S31500005B70154B1C60DC601C615C61BDE8F08100BFF8
S31500005B800000CC40F8800E401840C94058830E40B3
S31500005B9014810E400C40C940E4810E4084810E40C1
S31500005BA060850E4010840E402040C94044810E405E
S31500005BB03040C94098810E40E0830E40DC830E40A1
S31500005BC02480C0408C810E401C80C0401080C040A4
S31500005BD05080C0406C810E40FFF744BE73B5002470
S31500005BE0064601A80D460194FDF759FA074B1A68B7
S31500005BF0964206D101982B60FDF762FA204602B064
S31500005C0070BD0198FDF75CFA0420F8E72801002032
S31500005C1037B50024054601A80194FDF740FA0A4B62
S31500005C201A685AB19A7BAA4208D101989C73C3E9B3
S31500005C300044FDF745FA204603B030BD0198FDF754
S31500005C403FFA0420F8E700BF2801002073B50024BE
S31500005C50064601A80D460194FDF721FA084A136885
S31500005C604BB1927BB24206D101982B60FDF728FA20
S31500005C70204602B070BD0198FDF722FA0420F8E72D
S31500005C80280100202DE9F7430F46154622B90423C3
S31500005C90184603B0BDE8F08301A9FFF79FFF00286F
S31500005CA0F5D1044601264FF00C08DFF85890019B09
S31500005CB0E0B25B681A7A824201D83346E8E71B688D
S31500005CC008FB003083681B79012B15D0022B15D0F9
S31500005CD0032B15D0042B0DD1032309EB03132A46FE
S31500005CE0394640689B68984705280346D0D0002867
S31500005CF008BF00260134DAE70023EEE70123ECE7CC
S31500005D000223EAE72CC0020073B50D4601A904463A
